:020000040000fa
:080000000001040000000000f3
:020000040000fa
:10020000cfce200000ff2000000188000000000089
:100210000c000700a075210001002000110007005c
:10022000000020000000e000020032000000020098
:100230000000000024170200000000000040da0067
:100240000000fe004440a900a00420000000e000df
:100250000300320000002000a00188004440a800f4
:100260000000060091018800800078000000eb008b
:1002700015003700e280400032a0b4009101ba00be
:10028000e280400032a0b4009102ba00e280400057
:1002900032a0b4000002eb00472bde00f507b200ed
:1002a000602ce10004003a000059eb008301e900f2
:1002b000fdff3e00040037006128e100010032002c
:1002c0000082eb00040007001101ba000200e00008
:1002d000e8ff3a00000006003159ba008301e90046
:1002e0000c0032002159ba008301e90008003200f5
:1002f0000400e00003003a00e280400032a0b400b5
:10030000f5ff370011d9ba008301e900faff3a007e
:100310008100e800e180400032a0b4000000060047
:1003200000000000000000000000000000000000cd
:1003300000000000000000008001eb000200370018
:1003400061f079008301e800828f5100fcff3a00e0
:0403500000000600a3
:020000040000fa
:0200000401f009
:04000000f7ff000006
:020000040000fa
:0200000401f009
:04000400ff7f00007a
:020000040000fa
:0200000401f009
:040008007fff000076
:020000040000fa
:0200000401f009
:04001400ffff0000ea
:020000040000fa
:10000800a0170000a0170000a0170000a01700000c
:10001800a0170000a0170000a0170000a0170000fc
:10002800a0170000a0170000a0170000801500000e
:10003800a0170000a0170000a0170000a0170000dc
:10004800a0170000a0170000a0170000a0170000cc
:10005800a0170000a0170000a0170000a0170000bc
:10006800a0170000a0170000a0170000a0170000ac
:10007800a0170000a0170000a0170000a01700009c
:10008800a0170000a0170000a0170000a01700008c
:10009800a0170000a0170000a0170000a01700007c
:1000a800a0170000a0170000a0170000a01700006c
:1000b800a0170000a0170000a0170000a01700005c
:1000c800a0170000a0170000a0170000a01700004c
:1000d800a0170000a0170000a0170000a01700003c
:1000e800a0170000a0170000a0170000a01700002c
:0800f800a0170000a017000092
:020000040000fa
:10010800a0170000a0170000a0170000a01700000b
:10011800a0170000a0170000a0170000a0170000fb
:10012800a0170000a0170000a0170000801500000d
:10013800a0170000a0170000a0170000a0170000db
:10014800a0170000a0170000a0170000a0170000cb
:10015800a0170000a0170000a0170000a0170000bb
:10016800a0170000a0170000a0170000a0170000ab
:10017800a0170000a0170000a0170000a01700009b
:10018800a0170000a0170000a0170000a01700008b
:10019800a0170000a0170000a0170000a01700007b
:1001a800a0170000a0170000a0170000a01700006b
:1001b800a0170000a0170000a0170000a01700005b
:1001c800a0170000a0170000a0170000a01700004b
:1001d800a0170000a0170000a0170000a01700003b
:1001e800a0170000a0170000a0170000a01700002b
:0801f800a0170000a017000091
:020000040000fa
:100354001111000022220000333300004444000045
:100364005555000066660000777700008888000015
:1003740099990000aaaa0000bbbb0000cccc0000e5
:10038400dddd0000eeee0000cecd0000acab0000e1
:10039400020200000303000004040000050500003d
:1003a4000606000007070000080800000a0900000c
:1003b400101000001011000012120000546100001f
:1003c400736b00005f410000005400006173000083
:1003d4006b5f000042000000494400004c450000ef
:0403e4000000000015
:020000040000fa
:1003e8000000fa00c62cec000080fa0000000600ad
:1003f8000000fa00889fbe008a1f780080047800f9
:1004080001047800e38f5000010036003800200016
:10041800a20907000900e00001003a00d96680003f
:10042800b9089000810f54002e00320008003600f1
:10043800d0668000808f540008003200d0668000ab
:1004480030089000800f5400060031000300370088
:10045800d0668000808f5400020032000005eb0057
:10046800010037001a002000b80c980069009000bd
:100478000000e0000200350064001400e004980069
:100488006a08b90082c620000001410059009000a6
:10049800820f50000e003a000984e8000800780036
:1004a800dd090700b9089000a0668000808f500021
:1004b80001003600a1668800390990006a11b90068
:1004c80080c620000200400088007800b0090700bc
:1004d800e10f550003003a00341602000000000046
:1004e80000000000790907004f0578004f04be009e
:1004f8000080fa00000006000000fa00c60ce200c6
:100508000300320010002000706688001d003700cc
:10051800ce2cef00a06680006a00b90082c62000d9
:10052800000141001200e00007003a0082c62000e6
:10053800d42ced00a06680006a00b90000004100dc
:100548001000e000faff3200a06680006a00b900df
:1005580082c6200080004100110090001001900028
:100568009200980064804000800f510002003a0019
:100578001201900092009800110090003000900045
:10058800d06688000080fa00000006000000fa002b
:10059800906280001000e00002003a00c8acef0052
:1005a8000500370090628000300090003000900015
:1005b80010009000406688000080fa0000000600e5
:1005c8000000fa00889fbe00000478003309070085
:1005d8000800e00001003a00d86680008884e8003e
:1005e800090078008c090700280890000000e00046
:1005f800020032006c004400870907008900780077
:10060800c0c320006209070030090700d0668000d7
:10061800800f54000e003a00d20ce20004003200b1
:100628003416020000000000000000000d00370032
:10063800c1668000e0618000810f500002003a002e
:10064800da2cef0007003700abff07000500370082
:10065800d20ce2000300320010090700cbff0700ac
:100668001a0907004f04be000080fa0000000600c7
:100678000000fa0000017800d0009000c0c32000fc
:10068800808f500007003a00a208900060c4200044
:10069800808f500003003200100020000100e000ad
:1006a800010032000000eb000080fa0000000600a4
:1006b8000000fa00889fbe00000478000000e000f7
:1006c8001f003200d0668000800f54001c003200ea
:1006d800f208070008007800e5ff0700e10f500066
:1006e80016003a008884e800090078004a090700e3
:1006f800b8089000a0668000808f50000100360086
:10070800a1668800380990006a11b90080c62000e7
:1007180002004000890078001d090700d0668000ab
:10072800b808900030089000808f5000030039000e
:10073800341602000000000000000000e308070073
:100748004f04be000080fa00000006000000fa0016
:10075800889fbe008a1f780000047800c4ff070045
:100768008004eb00e10f50001e003a003166800063
:100778000100e00017003a00d0668000010178000f
:10078800b808900030089000808f500001003900b0
:1007980012002000820478000885e8000a0078002a
:1007a8001d090700b8089000a0668000808f5000df
:1007b80001003600a1668800380990006a11b90066
:1007c80080c62000020040008a007800f008070078
:1007d80004003700ec00440060c42000ec08070067
:1007e8008004eb00090078004f0578004f04be0034
:1007f8000080fa00000006000000fa009102800064
:10080800ff3ffc0042c0bf007f4060000054a000d2
:1008180042e0b7009102880000000000d22cef00ef
:100828009b0807000080fa00000006000000fa009c
:10083800889fbe008a9fbe00c60ce20040003a00b6
:10084800d62cec00ba6680000a00e00006003a00e8
:1008580090628000816280009162880080628800d6
:10086800cc2cec0049ff0700406680008005eb00b7
:10087800800f550023003900906280001000e000ce
:100888002d0032009062800030009000300490000b
:1008980018009000800f5500250039008884e80072
:1008a80009007800dc080700280890000000e00034
:1008b800020032006c004400d7080700b808900016
:1008c800a0668000808f500001003600a166880075
:1008d800380990006a11b90080c620000200400063
:1008e80089007800aa080700d0668000b808900040
:1008f80030089000808f5000dfff39001b00200077
:10090800ddff37008005eb00d066800030089000de
:100918006a00b90082c620000001410010002000d2
:10092800920f1000080036001b0020000600370058
:1009380040668800f4ff3700c8acef00f2ff3700cc
:10094800d02cec008005eb00ce0ce2000100320058
:100958001b0020000b0078004f05be004f04be00ae
:100968000080fa00000006000000fa00889fbe0020
:100978004a080700c62ced00c60ce20031003a0018
:10098800d80ce2001a003a002e003700606280009e
:10099800300490006c0044009f0807008884e80039
:1009a800090078009c080700b8089000a06680003d
:1009b800808f500001003600a16688003809900039
:1009c8006a11b90080c62000020040008900780042
:1009d8006f080700d0668000b808900030089000c3
:1009e800808f5000020039001000200070668800d7
:1009f800460ce200e5ff3a00d00ce20013003a0092
:100a08000800370089ff07000000e00002003200fc
:100a18001000200070668800d02ced00d00ce20099
:100a2800f8ff3a0070668000e10f500005003a00b8
:100a380034160200000000000000000000047800e6
:100a4800050037000004eb0003003700d00ce2007b
:100a5800f4ff3200ebff37001c080700080078009d
:100a68004f04be000080fa00000006000000fa00f3
:100a7800881f780009080700b86680001308070077
:100a8800080078004f0478000080fa000000060093
:100a98000000fa00b06680000080fa00000006003e
:100aa8000000fa00c06680000080fa00000006001e
:100ab8000000fa00881f780000047800d0668000e3
:100ac80018009800b0668000800f540005003100bf
:100ad800d1668000806280008180e80038080700c5
:100ae80008003700d1668000906280008180e800ad
:100af8003308070040668000800f54000100310071
:100b0800486688004f0478000080fa00000006005c
:100b18000000fa00889fbe00000478000000e00092
:100b2800090032002efe0700b9668000da8cec005e
:100b38003908070009004400ddff07008aff0700a5
:100b48000000e00003003a00341602000000000034
:100b5800000000004f04be000080fa0000000600fc
:100b68000000fa00889fbe00800478000104780025
:100b78001bfe0700b16680001900780008044000d9
:100b8800808f500003003100880f500005003600a8
:100b980002003700880f500004003e00888f500084
:100ba800020039000000eb000100370010002000af
:100bb800880c78000000e00004003200da8cec00b9
:100bc8001508070008007800b9ff070066ff07004e
:100bd8000000e00003003a003416020000000000a4
:100be800000000004f04be000080fa00000006006c
:100bf8000000fa00881f780001047800d1668000a0
:100c0800ec804000ee070700da8cec0002080700d1
:100c1800e10f440005003a00d16680008180e800b9
:100c2800c0c32000da07070003003700b066800061
:100c3800000044009eff07004f0478000080fa007f
:100c4800000006000000fa00881f780002047800ff
:100c5800d36680000200280082807000e1019800bd
:100c6800d1668000ec804000c9070700da8cec00f0
:100c7800e9070700e10f440005003a00d16680004b
:100c88008180e800c0c32000c107070003003700c7
:100c9800b06680000000440085ff07004f0478001c
:100ca8000080fa00000006000000fa00889fbe00dd
:100cb80030009000b00490006c8444000800780074
:100cc800d5070700c60ce2000f003a000984e800c7
:100cd80008007800d0070700b9089000a0668000d7
:100ce800808f500001003600a16688003909900005
:100cf8006a11b90080c62000020040008800780010
:100d0800a3070700030037008800780060c42000ac
:100d18009f070700d0668000b9089000300890004f
:100d28000001eb00808f5000030036001000200007
:100d38007066880000017800020078004f04be0049
:100d48000080fa00000006000000fa00889fbe003c
:100d5800020028000288700030049000ae070700e7
:100d68008884e80009007800ab070700b8089000fd
:100d7800a0668000808f500001003600a1668800c0
:100d8800380990006a11b90080c6200002004000ae
:100d9800890078007e070700d0668000b8089000b8
:100da800300890000001eb00808f500003003600ef
:100db80010002000706688000001780002007800aa
:100dc8004f04be000080fa00000006000000fa0090
:100dd8006166800001087800b16680001100980003
:100de8000080fa00000006000000fa00889fbe009c
:100df8008a1f78000004780001057800270707009b
:100e0800b26680009a0078008004eb00e18f400011
:100e18001000320060668000980f10000300320056
:100e280018009000800f5100090031001800900050
:100e380000005100808f500005003600008d5000e2
:100e480008007800e1ff07008004eb00010037008c
:100e5800190020001d070700090078004f057800d9
:100e68004f04be000080fa00000006000000fa00ef
:100e780010002000706688000080fa00000006005c
:100e88000000fa000080fa00000006000000fa00e6
:100e980040638000e10f5000030036003416020062
:100ea8000000000000000000fc070700f8ff370002
:100eb8000000fa00889fbe008a1f7800800478002e
:100ec800fa0140000002eb000480400090497800dd
:100ed8001004e000040032000402e8008301e80086
:100ee800e40f5200f8ff3a000040eb00d05c980095
:100ef800e30f510003003600320020001a002000e2
:100f08000100370064051100b20c98000980e80060
:100f18001a0707006c8444000800780017070700c8
:100f2800c90498000a0c7800990c98006000b80071
:100f380080149800911498000000eb00a014980009
:100f48004f0578004f04be000080fa00000006003c
:100f58000000fa00889fbe0088c6200009c920004a
:100f680008007800fc0607006a044400888f5400d3
:100f7800fbff3a00e0c52000f706070040c5200047
:100f8800f506070060c42000f3060700c0c3200070
:100f9800f1060700e0c520009062880040c52000e7
:100fa800806288004f04be000080fa00000006003e
:100fb8000000fa00889fbe008a1f780000057800ac
:100fc80001047800600220006307070080047800ad
:100fd8000000e0000b0032000800e00003003a00c7
:100fe8000a0045005c07070000047800c80c980058
:100ff8000800e00003003a000900780074070700c1
:1010080088047800090078004f0578004f04be0076
:101018000080fa00000006000600fa00889fbe0063
:101028008a9fbe008c9fbe00000f78008106780062
:101038000205780013079800240798000506780031
:10104800860078008705780002007800d8ff07003e
:10105800800478000080eb000900e0003f003200c7
:10106800490c90000a004500000044000080e90097
:10107800f00c98000a0278008b0178002e0190008d
:101088008d0078000900780089ff07001e01900094
:101098009e0078000800780035060700800c78006c
:1010a8000c00e00001003200090e78007b06070002
:1010b800d82cec00da0ce20006003a00d966880069
:1010c800c0668000e10f50000a003a00a0ff070048
:1010d80008003700d20ce20006003a00d066800013
:1010e80030089000ae009000808f50000100390059
:1010f800d9668800ca2cec00b9089000a066800068
:10110800808f500001003600a16688008980e800c1
:10111800390990006a11b90080c620000200400019
:101128009b06070069060700d20ce2000a0032009d
:10113800d066800030089000ae009000810f50000b
:101148000500310034160200000000000000000015
:101158001000200001003700100020004f06be00dc
:101168004f05be004f04be000080fa0000000600d4
:101178000000fa008003eb000003eb008602780011
:10118800060278008601780092062000e11e2800f9
:10119800a0742000a0ff070000017800e10f5000b4
:1011a8000c003a0091028000ff3ffc0042c0bf00e3
:1011b8007f4060000054a00042e0b7009102880020
:1011c80000000000c8acef0092668800d62cef0043
:1011d8000d0607000080fa00000006000000fa0073
:1011e800d066800060009000d2668000d1668000e2
:1011f800b1089000e4801000610198000080fa00b6
:10120800000006000000fa00889fbe008a1f7800d0
:10121800000578000104780020060700d0668000e9
:101228009010900000109000e00f5000e08f5800e0
:1012380014003a00d166800010002000a010980029
:101248000800e0000f003200da8cec00720607009c
:10125800e10f440005003a00d16680008180e80073
:10126800c0c320004a06070003003700b0668000ac
:10127800000044000efe07003416020000000000c3
:10128800000000001106070004060700d066800071
:101298000014900090149000e00f5400e08f5c0060
:1012a8000e0032000a00e00005003200d26680001d
:1012b8006000b8000011980011119800070037006d
:1012c800d2668000021090009210900061005000d9
:1012d800e08058000011980011119800d166800034
:1012e8000000eb00a0109800f80507000800be00f9
:1012f8004f0578004f04be000080fa000000060089
:101308000000fa00889fbe008a9fbe008c9fbe0026
:101318000004be000206be008405780005057800ba
:10132800de050700d066800020109000e20f500014
:1013380023003200d56680000511900095119000b9
:101348000880ea008980ea000202600003806000e9
:101358006101b800c010dd00000020006121b80064
:10136800020070008380700080129800911298002b
:10137800d166800010002000a01098000a00e0004c
:101388000f003200da8cec0023060700e10f45005d
:1013980005003a00d16680008180e800c0c32000c3
:1013a800fb05070003003700b06680000000450019
:1013b800bffd070034160200000000000000000016
:1013c800c2050700b50507000b00e0000400320065
:1013d800d06680000011900090119000828dbe00b0
:1013e800d0668000201090000004eb00e10f500050
:1013f80010003200d566800005119000951190000c
:101408000c80ea008d80ea00020260000380600020
:101418006101b800c010dd00000020006121b800a3
:10142800020070008380700080129800911298006a
:1014380018002000d16680000000eb00a010980082
:10144800a2050700080078004f06be004f05be0041
:101458004f04be000080fa00000006000000fa00f9
:10146800889fbe008a1f78008c9fbe000206be00bf
:1014780081047800040478000005780087050700d7
:101488000800e000030032000a1090009a10900053
:10149800008cbe002a119000200020002015980022
:1014a800808f54001000320003003e00e18f54008a
:1014b80019003a0005003700e38f54001400320089
:1014c800e48f540014003a000e0037000a10900010
:1014d8009a10900000007600818076000015980030
:1014e800111598000c0037000a1090009a1090000f
:1014f80061004000e0804800001598001115980030
:10150800050037000004eb00e20f51001d00320017
:101518000c1598001d159800e10f510018003a00ad
:101528000a84e80008007800bb050700ba089000a4
:10153800a0668000808f500001003600a1668800f8
:101548003a0990006a11b90080c6200002004000e4
:10155800880078008e050700d0668000ba089000e1
:1015680030089000808f50000500360034160200c5
:1015780000000000000000001800200001003700f3
:101588001800200051050700080078004f06be002b
:101598004f0578004f04be000080fa0000000600e6
:1015a8000000fa00889fbe008a1f780005057800b1
:1015b800000478000400e0000300320000139000eb
:1015c80090139000068abe00281290002000200088
:1015d80020149800808f50001000320003003e0055
:1015e800e18f500019003a0005003700e38f5000e2
:1015f80014003200e48f500014003a000e00370047
:10160800081090009810900000007100818071000f
:1016180000149800111498000c003700081090006e
:101628009810900061004000e08048000014980085
:1016380011149800050037000000eb00e20f52007b
:10164800230032000214980013149800e10f52008e
:101658001e003a00c60ce2000f003a008884e80039
:10166800090078006c050700b8089000a0668000a3
:10167800808f500001003600a1668800380990006c
:101688006a11b90080c62000020040008900780075
:101698003f05070003003700ec00440060c4200049
:1016a8003b050700d0668000b8089000300890001d
:1016b800808f5000050036000a00e0000300320069
:1016c80010002000000d78000100370010002000f5
:1016d8004f0578004f04be000080fa0000000600a5
:1016e8000000fa00889fbe008a1f78000105780074
:1016f8000004780020119000200020002014980099
:10170800081090009810900061004000e0804800a8
:101718000014980011149800e10f51001d003a00c0
:10172800c60ce2000f003a008884e800090078003f
:1017380039050700b8089000a0668000808f500027
:1017480001003600a1668800380990006a11b900c6
:1017580080c6200002004000890078000c050700c0
:1017680003003700ec00440060c4200008050700af
:10177800d0668000b808900030089000808f500034
:10178800040036000a00e0000200320010002000c9
:10179800000d78004f0578004f04be000080fa0065
:1017a800000006000000fa00889fbe0000047800d0
:1017b8000000e00001003a00d8668000b704070086
:1017c800281090008004eb00e20f500003003a005c
:1017d8000000eb002014980019002000bb0407004b
:1017e800090078004f04be000080fa0000000600df
:1017f8000000fa00889fbe00010478008004780089
:10180800a604070079099000091290000490b90015
:1018180019004000900498000000eb00e00c9800cc
:1018280019007800a00498000201e9000491b900a9
:1018380002014000b20498000080eb009014980068
:10184800a01498000800e0000b003a00490090003e
:101858000000e0000c0032006880440012fd070020
:10186800e10f500008003a003416020000000000a2
:10187800000000000400370068804400b604070038
:1018880072804400b4040700900407001000200090
:101898004f04be000080fa00000006000000fa00b5
:1018a800889fbe008a1f78000005780081047800b0
:1018b800600220000100e000020032000a88b9003e
:1018c8007002b00024050700000478000000e00062
:1018d8000c0032000900e00002003a00000c780019
:1018e8000200370060022000000c44007a0c9800c7
:1018f800091498001100200008007800bcff0700b8
:10190800080078004f0578004f04be000080fa00f8
:10191800000006000000fa00889fbe00000478005e
:101928005e040700e80890008004eb007808900047
:10193800808f500001003a0019002000630407005e
:10194800090078004f04be000080fa00000006007d
:101958000000fa00881f7800010478000001780070
:10196800e0089000700890008001eb00808f500024
:1019780019003100620890000000e8006009980032
:1019880022109000e10f40000d003a00120890006c
:101998000000e0000f00320072004100c2fc0700a6
:1019a8000000e0000b0032000800e00009003200ef
:1019b80010002000000c7800800178000600370035
:1019c800221090000000e800201198001300200069
:1019d8000100370013002000030078004f0478004e
:1019e8000080fa00000006000000fa00881f780056
:1019f8000004780029040700680c900033040700ed
:101a0800080078004f0478000080fa000000060003
:101a18000000fa00881f7800000478001f040700ff
:101a280068089000f8089000008450002704070018
:101a3800080078004f0478000080fa0000000600d3
:101a48000000fa00600890000080fa00000006001c
:101a58000000fa00de0407000080fa00000006001b
:101a68000000fa00889fbe00000478008204780015
:101a7800001190000200e000210032000900e0009f
:101a88000c003a002000900029fa07002800900076
:101a980088109000010040002004980098009000f1
:101aa800810f5000160039001800780020049800b3
:101ab80013003700300090001dfa0700380090002e
:101ac800881090000100500030049800980f5000d2
:101ad8000300310018009000010050003004980005
:101ae800e28f540006003a00680890000000e00009
:101af80003003200680890000000e900600c9800bc
:101b0800680890000000e800600c98000000eb00f6
:101b18004f04be000080fa00000006000000fa0032
:101b2800889fbe00010278008204780003017800d3
:101b380000047800e008900070089000808f500042
:101b4800030039000000eb00e28f510018003a0052
:101b58008400780008007800c1ff07002810900072
:101b6800e10f40000c003a00180890000000e00067
:101b78000e003200720044004bfc07000000e00039
:101b88000a0032000900e0000800320010002000be
:101b9800800c780006003700281090000000e8004c
:101ba80020149800100020000100370010002000c9
:101bb8004f04be000080fa00000006000000fa0092
:101bc8000001be00801090000100e0000d0032000e
:101bd8003000900000804000300198009200900092
:101be800810f50000200390012007800300198007f
:101bf8006600410090007800021190000300780010
:101c0800cbf907000080fa00000006000000fa0087
:101c1800889fbe0080047800600890000000e00003
:101c2800050032003904900009007800e3ff07003e
:101c3800b8049800100020004f04be000080fa008d
:101c4800000006000000fa00889fbe0082047800a9
:101c580000047800600890000000e0001a003200dc
:101c680008007800d5ff0700680890000000e90028
:101c7800600c980018109000e10f40000c003a002a
:101c8800480090000000e0000e00320068004400a8
:101c980005fc07000000e0000a0032000900e0002f
:101ca8000800320010002000800c78000600370081
:101cb800181090000000e800101498001000200090
:101cc80001003700100020004f04be000080fa0019
:101cd800000006000000fa00881f78000004780061
:101ce8006e030700281090000000e0002b003c0065
:101cf8000e003700180890000000e0000b003200ca
:101d080072004400e8fb07000000e0000100320018
:101d180056fc0700281090000000e90020149800e5
:101d2800281090000000e000f2ff3c000080eb006b
:101d38002014980065030700580307001810900046
:101d48000000e00019003c000e0037004800900039
:101d58000000e0000b00320068004400d2fb0700de
:101d68000000e0000100320040fc0700181090005d
:101d78000000e90010149800181090000000e0001e
:101d8800f2ff3c000080eb00101498004f0307009e
:101d98004f0478000080fa00000006001808900040
:101da8000000e000e1ff3200d5ff37004800900056
:101db8000000e000f3ff3200e7ff37000600fa00fa
:101dc800889fbe008a9fbe008c1f7800810578001e
:101dd8002207980003067800800478000005eb00cd
:101de8002e030700690890000000e0001f00320081
:101df800390490008b007800090078006fff070015
:101e08000c00e0000b003a00690890000000e900af
:101e1800e00c9800490090000000e000100032003b
:101e280068804400a0fb0700e10f50000c003a0056
:101e380008003700b8049800190890000000e00076
:101e4800070032007280440097fb07000000e000a2
:101e580003003200341602000000000000000000f9
:101e68001a03070010002000370037002e049000e6
:101e78000800e00003003a00140307000800780097
:101e8800310037000a00e00003003a000e00780035
:101e9800cefb07001a0020000c03070050f90700ca
:101ea800fe02070019109000e10f400002003a00fe
:101eb8000000eb009014980029109000e10f4000fa
:101ec80002003a000000eb00a0149800ff0207008f
:101ed800e40047000e007800c3fb07000000e000a4
:101ee80015003a00ed020700690c9000f7020700a0
:101ef8000800e0000c003a00ae0090007280440038
:101f08003bfb07000900780072ff070096fa0700fc
:101f18000000e000b2ff3a003416020000000000a2
:101f280000000000aeff37000900780069ff0700d5
:101f38008dfa0700aaff37000900780065ff07003f
:101f480089fa07000000eb004f0678004f05be0035
:101f58004f04be000080fa00000006000600fa00e8
:101f6800889fbe008a9fbe008c1f780001067800fb
:101f78002207980003057800800478008005eb00ac
:101f8800c6020700e908900079089000808f500089
:101f980002003900e20f550015003a000a017800e6
:101fa8008c00780009007800adfe070080007800fa
:101fb800190890000000e00005003200728044001b
:101fc80039fb0700e10f500006003a000200370015
:101fd8000100e00003003200341602000000000097
:101fe80000000000b902070010002000360037008a
:101ff8002e0490000800e00003003a00b302070036
:1020080008007800300037000b00e00003003a00b9
:102018000e0078006dfb07001b002000ab020700d4
:10202800eff807009d02070019109000e10f40002b
:1020380002003a000000eb0090149800291090006c
:10204800e10f400002003a000000eb00a0149800e5
:102058009e020700e40047000e00780062fb0700bc
:102068000000e00014003a000900780029fe07008b
:102078000000e0000c003200ae00900068804400d0
:10208800dbfa07000900780012ff070036fa07009c
:102098000000e000baff3a00341602000000000019
:1020a80000000000b6ff37000900780009ff0700ac
:1020b8002dfa0700b2ff37000900780005ff070076
:1020c80029fa07000000eb004f0678004f05be0014
:1020d8004f04be000080fa00000006000000fa006d
:1020e800e00890000100ea00010070004f00de00e7
:1020f800610010000080fa00000006000000fa00ed
:10210800e00890000001eb0070089000808f5000fc
:1021180001003a0012002000020078000080fa0056
:10212800000006000000fa00889fbe008a1f7800a1
:10213800010578008204780000047800910280008c
:10214800ff3ffc0042c0bf007f4060000054a00079
:1021580042e0b70091028800000000000800780003
:10216800ecfd07000000e000130032000900e00069
:102178000a003200e800440009007800d600070091
:1021880091028000ff3ffc00f0c1b3004260b6003e
:1021980091028800c0ff2f002c00370091028000b8
:1021a800ff3ffc00f0c1b3004260b6009102880016
:1021b8000000eb002500370091028000ff3ffc0083
:1021c800f0c1b3004260b60091028800910280001d
:1021d800ff3ffc0042c0bf007f4060000054a000e9
:1021e80042e0b7009102880000000000e808900073
:1021f800780890000001eb00808f50000d0031003e
:102208000001eb008a0078000800780014fe07003f
:10221800180890000000e000050032007200440039
:10222800be010700b2ff2f000000e00001003a00e5
:102238001200200091028000ff3ffc00f0c1b300b3
:102248004260b60091028800020078004f057800cd
:102258004f04be000080fa00000006000000fa00eb
:10226800881f7800810178000004780091028000be
:10227800ff3ffc0042c0bf007f4060000054a00048
:1022880042e0b70091028800000000006808900052
:102298000000e00013003a000200e0000a003200eb
:1022a800f2004400020078008b00070091028000d1
:1022b800ff3ffc00f0c1b3004260b6009102880005
:1022c800c0ff2f003900370091028000ff3ffc005b
:1022d800f0c1b3004260b600910288000000eb0034
:1022e8003200370091028000ff3ffc00f0c1b300cc
:1022f8004260b6009102880091028000ff3ffc0016
:1023080042c0bf007f4060000054a00042e0b70018
:102318009102880000000000680890000000e000ba
:1023280002003a00000178001a00370038009000d7
:102338008810900001004000300498009800900038
:10234800810f50000200390018007800300498000e
:10235800680890000000e900600c980066004400de
:10236800900078000811900003007800f0f707004b
:10237800480090000000e0000500320068004400ba
:1023880066010700b2ff2f000000e00001003a00dc
:102398001200200091028000ff3ffc00f0c1b30052
:1023a8004260b60091028800020078004f0478006d
:1023b8000080fa00000006000000fa00889fbe00b6
:1023c800000478008101780082047800e008900019
:1023d80070089000808f50000f0031000001eb0062
:1023e80083007800080078009dfd07000900e000e0
:1023f80009003a00180890000000e00008003200c8
:102408007200440045010700110020000000e000b0
:1024180004003a0002003700890078000100370004
:102428008000eb00010078004f04be000080fa0035
:10243800000006000000fa00889fbe0081017800b5
:102448008204780000047800600890000000e00032
:102458001e003200380090008810900001004000f3
:102468003004980098009000810f50000200390055
:102478001800780030049800680890000000e9000f
:10248800600c9800660044009000780008119000e5
:1024980003007800a6f707001900e0000a003a00d8
:1024a800480090000000e000070032006800440087
:1024b8001a0107000000e0000300320010002000ad
:1024c800800c780001003700100020004f04be0087
:1024d8000080fa00000006000000fa00889fbe0095
:1024e8000001780081047800006780000004410042
:1024f800e48cec00c80107002067800018009800f1
:1025080000678000800f54000500310021678000bb
:102518008180e800d0648000a9010700040037002a
:10252800216780008180e800e0648000a401070042
:102538000900e0000400320021678000ec804000c0
:10254800090078009e0107004f04be000080fa00d1
:10255800000006000000fa00889fbe00900ce20010
:102568002100320091028000ff3ffc0042c0bf0002
:102578007f4060000054a00042e0b700910288004c
:1025880000000000b0648000300490006c0044003b
:10259800a101070091028000ff3ffc00f0c1b300d9
:1025a8004260b600910288008884e800090078003b
:1025b80099010700b808900010678000808f5000cc
:1025c8000100360011678800380990006a11b900c7
:1025d80020cb200002004000890078006c01070031
:1025e800900ce200dfff3a004f04be000080fa00c2
:1025f800000006000000fa00889fbe001bf90700d3
:10260800f166800001005000e06688003b0037005a
:10261800016780008100e800016788000000e90088
:10262800e06688000100e00004003a00e0648000f1
:10263800d2648000e2648800d0648800e06480008e
:102648001000e00035003a002c0037003000900000
:10265800300490009800900000678000808f500040
:1026680026003e0090028000ff3ffc00210420006d
:1026780091407800ffc060000154a0008000fd0078
:1026880042e0b7008000fd009002880000000000d2
:102698008884e800090078005f0107002808900096
:1026a8000000e000020032006c0044005a010700fc
:1026b80092028000ff3ffc00f0c1b3004260b60008
:1026c80092028800b808900010678000808f500040
:1026d8000100360011678800380990006a11b900b6
:1026e80020cb200002004000890078002801070064
:1026f800e06480001000e000d4ff3a00e06680004b
:102708000000e000c2ff3a0002678000f26688001d
:102718004f04be000080fa00000006003000900060
:102728003004900018009000808f5000f3ff3900ab
:10273800ccff37000000fa0086ff0700adff070056
:10274800156780006a28b90022cb2000800041006c
:102758001100e0001a0032000a0037000000e8000b
:102768006a0151006a025200808f52001d00320037
:102778008301e90013678800820078001400e000f4
:10278800f6ff3200110090001001900092009800ae
:1027980064804000800f510002003a00120190004e
:1027a8009200980011009000300090002067880087
:1027b800c0089000100178000200010009003700ed
:1027c8000500e000070032006a28b90082ca20002c
:1027d8000001410002027800850178000000eb004a
:1027e800e3ff37000080fa00000006000000fa004e
:1027f800889fbe0028cb200069cc20000800780004
:10280800d50007006a044400888f5400fbff3a0093
:1028180080ca2000d0000700e0c92000ce000700d1
:1028280000c92000cc00070080ca2000e0648800ae
:10283800e0c92000d06488004f04be000080fa0080
:10284800000006000000fa00889fbe008a9fbe00b4
:102858008c1f780080057800010478000205780054
:10286800c00120003c010700800478000080eb00d4
:102878000900e00024003200e40ce20002003a0003
:1028880029678800d9ff0700e10f540003003600cc
:1028980018002000080678000100370062061400be
:1028a8000000eb00d00c9800b80c9800ca0c9800f7
:1028b800090578000b1d78000a007800af000700b2
:1028c8006c84440008007800ac000700c904980034
:1028d800990c98000c0c7800b908900010678000db
:1028e800808f500001003600116788003909900078
:1028f8006a11b90020cb2000020040008a0078004d
:10290800a3000700100020004f0678004f05be0006
:102918004f04be000080fa00000006000000fa0024
:10292800889fbe0030009000b00490006c84440082
:1029380008007800b80007008800780000c9200067
:10294800930007000001eb00b908900020678000a1
:1029580030089000808f50000100390012002000dc
:10296800020078004f04be000080fa000000060054
:102978000000fa00010878008000eb0011009800c0
:102988002100980032009800e8004000a01a2800b2
:10299800021e2800b0187800820f5000fdff3a0090
:1029a800200280008008780034c0bf000080fb004f
:1029b800900098000000eb00a0009800668040009e
:1029c8000080fa00000006000000fa000000eb009a
:1029d8002008880000088800f03f220010088800be
:1029e80095c0bf00f1c8b300014060000044a000da
:1029f80095e0b7008460a9008c60a80005e1a800f4
:102a08000080fa00000006000000fa00eeff070050
:102a1800d0668000900778004f00780050678800e3
:102a28003400f9004400f9004000f9003e00f900c4
:102a38003c00f9003a00f9003800f9002c00f900d0
:102a48002a00f9002800f9002600f9002400f900fe
:102a58002200f9003200f9003600f9004f0778002b
:102a68004f06be004f05be004f04be004f03be0018
:102a78004f02be004f01be004f00be004200f900e9
:102a880000000600100020000080fa000000060088
:102a98000000fa000080fa00000006000000fa00ba
:102aa80091028000ff3ffc0042c0bf007f406000f1
:102ab8000054a00042e0b700910288000000000026
:102ac800ea2cec000080fa00000006000000fa0082
:102ad800ea0ced005067880005003a00910280007a
:102ae800ff3ffc00f0c1b3004260b60091028800cd
:102af8000080fa00000006003600f800809fbe0043
:102b0800829fbe00849fbe00869fbe003400f800ee
:102b180000002000a00188000000fa008460a900dd
:102b280042f707000000e0000300320034160200fc
:102b380000000000000000000080fa003400f900e6
:102b48004f03be004f02be004f01be004f00be0043
:102b58003600f900004006000000fa00e4004000da
:102b6800110098008088eb0031009800410098001f
:102b78000008eb000080fa00000006000000fa00e0
:102b88008000eb00410098000080fa000000060079
:102b98000000fa001001900092009800a201900035
:102ba800a3009800a20190009101980021019800cb
:102bb800c00098001008e8000080fa000000060035
:102bc8000000fa000002780091017800e18f4100ce
:102bd80002003a00400190000600370064014000fe
:102be80012009000908f5100020039000001780017
:102bf800fbff370012009000900098002100980019
:102c0800a200980011019800c4009800140ae80076
:102c18000080fa00000006000000fa00800078003a
:102c28004001900010009000a1019000230098003e
:102c3800a10190009001980012009000808f500030
:102c480001003a00130198000000eb00c000980052
:102c58001200e900000978000080fa000000060070
:102c68004200f800801f780000022000100288004f
:102c7800811f7800829fbe00849fbe00869fbe0091
:102c8800889fbe008a9fbe008c9fbe008e1f780062
:102c98003600f8003200f8002200f8002400f8009e
:102ca8002600f8002800f8002a00f8002c00f80098
:102cb8003800f8003a00f8003c00f8003e00f80040
:102cc8004000f8004400f8003400f8005067800025
:102cd800801f7800d06680000f087800800202000c
:102ce80000000000d0668000900778004f00780050
:102cf800506788003400f9004400f9004000f900ea
:102d08003e00f9003c00f9003a00f9003800f900eb
:102d18002c00f9002a00f9002800f9002600f90023
:102d28002400f9002200f9003200f9003600f90009
:102d38004f0778004f06be004f05be004f04be0087
:102d48004f03be004f02be004f01be004f00be0041
:102d58004200f900000006000000fa00881f780011
:102d6800000478000008a300020032000000a1005f
:102d78000084e8009af507005208e20003003a00d0
:102d8800608520000000a1009042880082428000f7
:102d980082004400503e2000808f500006003e0014
:102da800810f51000400310090428000000441006e
:102db80081428800010037000004eb00eaf60700b2
:102dc800080078004f0478000080fa000000060030
:102dd8000000fa000080fa00000006000000fa0077
:102de8005028ef000080fa00000006000000fa00fa
:102df800603e200081428000010050000080fa00ff
:102e0800000006000200fa0018f70700000f78001b
:102e1800e82cef00a10020000e00780050f7070012
:102e2800e82cec00fbff37000000fa00e62cef006e
:102e3800f000200036f70700e62cec00fcff370016
:102e48000000fa008003eb000003eb008602780024
:102e5800340020008601780042062000011e280068
:102e6800607021006cf807008003eb000003eb00a2
:102e7800860278002400200086017800420620009f
:102e8800711e28008071210063f80700b8f8070058
:102e98000000eb000080fa00000006000000fa00c5
:0c2ea80024fe07000080fa000000060075
:020000040000fa
:102eb400e60c00000400000000000000dc0c000030
:102ec4000a000000020000000000000000000000f2
:102ed4000000000000000000900c0000360000001c
:102ee4000000000050080000ec0300000000000097
:102ef400ea0c00000200000002000000ef000000e5
:102f0400c60c0000160000000200000000000000d3
:102f140000000000000000000000000000000000ad
:102f24000000000000000000000000003c0c000055
:0c2f34005400000000000000000000003d
:020000040000fa
:042f40000000fe008f
:00000001FF
